:400000000080002011000000550600005506000008B5044B1A6803F53F5302331A6000F039FB00BFFA46004010B5054C237833B9044B13B10448AFF300800123237010BD8D
:400040008881FF1F00000000BC410000084B10B51BB108490848AFF300800848036803B910BD074B002BFBD0BDE81040184700BF000000008C81FF1FBC410000C880FF1F88
:400080000000000008B501F01BF8064B1870412802D10122044B1A60422802D10022024B1A6008BDC381FF1FA481FF1F10B5012000F02AFF0A2000F00BFE002000F024FF99
:4000C00000F0ACFF0028FBD000F0A8FF0128FBD000F09AFFC0F57F40FF3001F0D7F90022194B01F063FB01F049FC184901F0A4FD174901F055FE0146144801F093FC0446EB
:400100000A2000F0CFFD0021072000F073FE114800F04EFE204601F0CBF90F4C02460B460E49204602F0A2FB00210B2000F062FE204600F03DFE00210F2000F05BFE252035
:4001400000F030FE10BD00BF00004D400000C8420000E041C0410000E481FF1FC841000010B50021682000F0B1FC0028F9D100F03FFD0121682000F0E9FC002406E00120BD
:4001800000F062FD064B18550134E4B2052CF6D9002000F059FD024B987100F00DFD10BDD881FF1F38B50021084600F023FE1A4DA878C0F30110194B1870194C0A222146D1
:4001C00001F0CDFE207800F0EDFDA87800F00F00144B18700A22214601F0C1FE207800F0E1FD3A2000F0DEFD687800090E4B18700A22214601F0B3FE207800F0D3FD6878C6
:4002000000F00F00094B18700A22214601F0A7FE207800F0C7FD38BDD881FF1FD781FF1FC481FF1FD681FF1FE081FF1FDF81FF1F2DE9F04182B0002305E002AA1A4400210B
:4002400002F8081C0133042BF7DD002000F04AFE132000F027FD012000F044FE002700E0013700F04BFE0128FAD000E0013700F045FE0028FAD000F041FE0128FBD04FF02D
:4002800000080725464622E000F038FE0028FBD0002400E0013400F031FE0128FAD007EBD773B4EB630F08DD0123AB4002AA424412F8081C0B4302F8083C2DB908F1010803
:4002C0005FFA88F8072501E0013DEDB20136272EDADD9DF80020064B1A609DF802205A60012000F0DFFC002002B0BDE8F08100BFCC80FF1F80B562B600F06CFA00F0DCFD9E
:4003000000F0D0FE00F072FE00F090FE2C4800F033FF2C4B187800F03DFFFFF7C7FEFFF71FFFFFF73FFFFFF783FF274C274F284E62683946304602F099FA264D22683946BE
:40034000284602F093FA244F236862682349384602F08CFA0121002000F04CFD384600F027FD0121062000F045FDDF2000F01AFD01210F2000F03EFD252000F013FD3046A2
:4003800000F0C0FE164800F0BDFE164C204600F0B9FE284600F0B6FE134800F0B3FE204600F0B0FE114800F0ADFE114800F0AAFE204600F0A7FE40F6B83000F073FCA8E719
:4003C00085000000A481FF1FCC80FF1FD0410000D081FF1FC881FF1FB481FF1FD4410000E4410000E8410000EC410000E481FF1FF4410000FEE700BFF0B40022174611E091
:4004000050F82760F3B226F0FF0608E001EB420511F812406D78A5550132013BDBB2002BF4D101371B2FEBD9F0BC7047064B1B78DBB203F00701054A11701B09013213702D
:400440004422034B1A707047CF0100496E5800407658004008B50A46002101F08DFD08BD38B51722264B1A801823264A13704FF49C7102321180023213700222224B1A70A6
:4004800008224FF040231A70032103F5007319701E4B1B78DBB21E490B701E4B1A8041F25122023B1A80002419250CE01A4B1B7803F0010343EA440404F003044FF4F07093
:4004C00000F076FE013D0DB1032CEFD115B90320FFF790FF114B4FF480721A8007221A7000220F490A704820023108701A700222033B1A700B4A137843F00303137038BD4B
:4005000080400040824000400043004008010049A146004022420040254200400440004006400040A243004008B501F01AFD08BD38B572B6364A137843F0040313700024B8
:400540000CE0344D630019194A0011462A44084691882858FFF77EFF0134E4B20A2CF0D900240CE02B48A20011194B000344B3F84C20996C586CFFF7D7FF0134E4B2012CC1
:40058000F0D925494FF09040FFF736FF234A137843F0020313701032137843F0020313701F4C237843F040032370A2F58632513A137843F0100313700A221A491A48FFF76B
:4005C000B3FF082219491A48FFF7AEFF082219491948FFF7A9FF0A2218491948FFF7A4FF184A137843F008031370174D61232B70FFF736FF81232B700122144B1A70FFF709
:4006000015FF0E2221461248FFF78EFF38BD00BFE8460040F84100007000004803500140A043004074040048C0510040800400481251004088040048225100409004004885
:4006400030510040224300400048004004000840B043004008B501F03FFC03680C2B00D1FEE7FEE708B5094B1A681044084BC31AB3F5007F02DC054B186005E001F02CFC05
:400680000C2303604FF0FF32104608BDD480FF1F0882FF1F08B5104E104D16E029686B68AC68002204E051F8040B43F8040B0432A242F8D1E868002203E0002143F8041BC2
:4006C00004328242F9D11035013E002EE6D101F009FCFFF70FFEFEE7010000000044000008B5104A104B1A60104A136843F40073136000230AE0032B03D80D4A52F82310E2
:4007000000E00C490C4A42F8231001332F2BF2D90A4B1A780A4B1A70074A0A4B1A60FFF707FF08BD0004FA050CED00E014ED00E000000000550600000080FF1FBC76004099
:40074000C080FF1F08ED00E038B50222114B1A7081220E3B1A70082202331A700F2511331D70002401331C704FF400420A4B1A600721284600F0CAFA0849284600F0B2FA0E
:400780001022074B1A70074B1C70074B1C70074B1C7038BDD649004080E100E0FD070000EB81FF1FEE81FF1FF681FF1FEC81FF1F08B500F005FD064A137843F0040313707A
:4007C0001032137843F00403137000F0FDFC08BDA543004008B5074B1B7823B9FFF7B4FF0122044B1A70FFF7E3FF4FF40042024B1A6008BDA881FF1F00E100E038B5A54BA8
:400800001C78A54B1B7813F0400F00F03A81E4B214F0010F00F01D819F4B1B78453B052B00F21481DFE813F006008200120112010600DF0004F0DF0504F00A04082C42D13A
:40084000954B1B78DBB2452B35D1944B1B7813F0FF0F10D0924B1B681B78DBB2914A137004228C4B1A7001228F4B1A7046228A4B1A702C46EDE08D4B1B7813F0020F0DD051
:400880008B4A137843F00A0313706022824B1A704FF40042874B1A602C46DAE0864A137843F0100313701022844B1A700422023B1A702C46CDE00022764B1A704A22764BEA
:4008C0001A702C46C5E00A2C2BD1794A137843F0A0031370754B1B7813F0020F14D06E4B1B7813F0080F01D0092300E00A23704A11780B4313706022674B1A704FF400426C
:400900006C4B1A602C46A4E06B4A137843F0100313701022694B1A700422023B1A702C4697E0002000F0BCF92C4692E014F0020F36D15D4B1A78D2B2584B1B78DBB29A421F
:4009400010D2594A1378DBB255490968CB5CDBB254490B7004214F4B197013780133DBB2137076E0514B1B7813F0020F0CD0504A137843F00A0313706022474B1A704FF4AA
:4009800000424C4B1A6064E04B4A137843F0100313701022494B1A700422023B1A7058E0424B1B7813F0020F0CD0414A137843F09A0313706022384B1A704FF400423D4B2D
:4009C0001A6046E03C4A137843F01003137010223A4B1A700422023B1A70354A137843F09003137035E0364A1378DBB2354908682C490978C9B2C15413780133DBB213700C
:400A00001278D2B2304B1B78DBB29A4203D21022204B1A701DE0254B1B7813F0020F0CD0234A137843F00903137060221A4B1A704FF400421F4B1A600BE01F4A137843F09F
:400A4000100313700022134B1A7002E0002000F027F914F0200F1CD00F4B1B7813F0080F01D0012300E00223114A11780B431370114A137803F0EF0313701022064B1A7094
:400A800038BD054B1B7813F0100F02D11022024B1A7038BDD7490040EB81FF1FED81FF1FF881FF1FD8490040EC81FF1FF481FF1FEE81FF1F80E100E0D6490040D949004050
:400AC000F681FF1FF081FF1FF581FF1F1A4B1B78DBB2102B29D1194B1B7813F0080F26D14FF40042164B1A604000C0B229B140F001004922104B1A7002E045220E4B1A70E3
:400B0000104B1870012201331A700F4B1B7813F0010FFAD00C4B1B7803F00A030A2B08D11022054B1A700320704702207047012070470020704700BFEB81FF1FD949004016
:400B400080E100E0D8490040D7490040164B1B7813F0040F23D04000C0B229B140F001004922124B1A7002E04522104B1A70104B1870122201331A700422023B1A700D4B1F
:400B80001B7813F0010FFAD00A4B1B7803F00A030A2B06D11022054B1A7003207047022070470020704700BFD9490040EB81FF1FD8490040D74900400A4B1B7813F0040FD1
:400BC0000ED01023074A13700421023A1170064A1370064B1B7813F0210FFAD00020704702207047D9490040EB81FF1FD7490040114B1B7813F0040F1BD0104B1870042285
:400C0000013B1A7046220E4B1A700E4B1B7813F0010FFAD00B4B1B7813F0020F04D16022074B1A70002070476022054B1A70032070470220704700BFD9490040D849004042
:400C4000EB81FF1FD7490040114B1B7813F0040F1BD0104B1B78DBB2492B05D100220E4B1A704A220B4B1A700B4B1B7813F0010FFAD00A4B1B78DBB218B11021064A11707E
:400C800004E06021034A117000E0002318467047D9490040EB81FF1FD7490040D849004001BE704710B5044605E0084B186800F07FFAA4F50044B4F5004FF6D8034B5868E5
:400CC00000FB04F000F074FA10BD00BFD880FF1F08B5034B1B7A00FB03F000F069FA08BDD880FF1F70B504460E46074B1D681F2802D90020FFF7D4FF04F01F04103455F83C
:400D0000240045F8246070BD08ED00E038B504460D46072902D90020FFF7C2FF1F2C02D90020FFF7BDFF04F01F0000F1604000F564406D01EDB2057038BD00BF08B5034BEA
:400D4000D9790143187800F043FA08BDFC81FF1F10B5044640F00400FFF7F0FF0120FFF7B7FF04F0FB00FFF7E9FF3220FFF7B0FF10BD00BF10B50446FFF7E0FF2046FFF73B
:400D8000E7FF10BD38B50D4600F0F0030401E4B243EA0100FFF7EEFF44EA0500FFF7EAFF38BD00BF08B50121FFF7ECFF08BD00BF38B50546002402E0FFF7F4FF0134285DC6
:400DC0000028F9D138BD00BF08B50021FFF7DAFF08BD00BF08B50120FFF7F6FF0220FFF761FF08BD08B50220FFF7EEFF0220FFF759FF08BD00B583B003460B4A1068019090
:400E00000A4A52798A4201D2511EC9B202AA114411F8040C184460F07F00C0B2FFF7D4FF03B05DF804FB00BF50420000FC81FF1F08B5054B987840F00400987040F0080006
:400E4000FFF7C2FF08BD00BFFC81FF1F10B5194CE079FFF773FF4FF47A70FFF723FF3020FFF788FF41F29410FFF732FF3020FFF781FF41F29410FFF72BFF3020FFF77AFF25
:400E80009620FFF725FF2020FFF774FF607840F02000FFF799FF0423A370FFF7C9FFFFF799FF0223E3700620FFF78EFFFFF79AFF10BD00BFFC81FF1F08B5094B27221A70C2
:400EC00010221A7102225A7100229A710822DA715A703220FFF7E6FEFFF7B8FF08BD00BFFC81FF1F044A137803F07F03C001C0B218431070704700BF30510040014B187873
:400F0000C009704731510040014B1870704700BF79640040084A137843F0010313701032137843F00103137002F64D32137843F001031370704700BFA3430040014B1870BE
:400F4000704700BF034F0040014B1880704700BF044F0040014B1880704700BF064F004008B51F4A137803F0010313701D4B1A7802F0FC021A701A7802F0F3021A701A7859
:400F800042F00C021A701A7802F07F021A701A7842F080021A701A78D2B21A7009331A7802F0CF021A701A7842F030021A701A7802F0F0021A701A7842F00F021A700A4A1A
:400FC000137843F0010313704FF6FF70FFF7BCFF4FF6FF70FFF7BEFF0020FFF7AFFF08BD004F0040024F0040014F004008B5054B1B7823B9FFF7B4FF0122024B1A70FFF792
:4010000089FF08BDA981FF1F024B1B88024B188880B27047064F0040084F0040024B187800F00100704700BF21510040054A137843F0010313701032137843F00103137018
:40104000704700BFA24300407222074B1A702022033B1A7006225F3B1A70472210331A700022B03B1A7070478B65004010B500F0A7F804460A4A137843F020031370033AC8
:40108000137843F010031370FF3A137843F01003137000F049F8204600F096F810BD00BF9B65004008B5054B1B7823B9FFF7CCFF0122024B1A70FFF7D9FF08BDAA81FF1F5B
:4010C000084B1B78DBB213F0200F06D0064A1078C0B213F01E0F02D17047002070470020704700BF686500404B650040034B1B7813F0040FFAD1024B1870704769640040AC
:401100004964004038B5074B1B782BB938BDFFF7EDFF0134A4B201E005460024285D0028F5D138BDAA81FF1F054A137843F0020313701032137843F002031370704700BF16
:40114000A2430040014B1B681864704708ED00E04001C0B2014B1870704700BF00E400E00122014B1A60704700E100E00122014B1A60704780E100E010B50446FFF7F6FF76
:401180002046FFF7DFFF0720FFF7E2FFFFF7E8FF10BD00BF044A137803F0EF03000100F0100018431070704730510040000000000230800803D000BF01380046FCD170472D
:4011C000EFF3108072B6704780F31088704700BF10B50C460021FFF779FC2046FFF708FDFFF7EAFC10BD00BF81F0004102E000BF83F0004330B54FEA41044FEA430594EA46
:40120000050F08BF90EA020F1FBF54EA000C55EA020C7FEA645C7FEA655C00F0E2804FEA5454D4EB5555B8BF6D420CDD2C4480EA020281EA030382EA000083EA010180EA41
:40124000020281EA0303362D88BF30BD11F0004F4FEA01314FF4801C4CEA113102D0404261EB410113F0004F4FEA03334CEA133302D0524263EB430394EA050F00F0A7808E
:40128000A4F10104D5F1200E0DDB02FA0EFC22FA05F2801841F1000103FA0EF2801843FA05F359410EE0A5F120050EF1200E012A03FA0EFC28BF4CF0020C43FA05F3C0182A
:4012C00051EBE37101F0004507D54FF0000EDCF1000C7EEB00006EEB0101B1F5801F1BD3B1F5001F0CD349085FEA30004FEA3C0C04F101044FEA445212F5800F80F09A8057
:40130000BCF1004F08BF5FEA500C50F1000041EB045141EA050130BD5FEA4C0C404141EB010111F4801FA4F10104E9D191F0000F04BF01460020B1FA81F308BF2033A3F196
:401340000B03B3F120020CDA0C3208DD02F1140CC2F10C0201FA0CF021FA02F10CE002F11402D8BFC2F1200C01FA02F120FA0CFCDCBF41EA0C019040E41AA2BF01EB0451F9
:40138000294330BD6FEA04041F3C1CDA0C340EDC04F11404C4F1200220FA04F001FA02F340EA030021FA04F345EA030130BDC4F10C04C4F1200220FA02F001FA04F340EAF3
:4013C0000300294630BD21FA04F0294630BD94F0000F83F4801306BF81F480110134013D4EE77FEA645C18BF7FEA655C29D094EA050F08BF90EA020F05D054EA000C04BF2A
:401400001946104630BD91EA030F1EBF0021002030BD5FEA545C05D14000494128BF41F0004130BD14F580043CBF01F5801130BD01F0004545F0FE4141F470014FF0000008
:4014400030BD7FEA645C1ABF194610467FEA655C1CBF0B46024650EA013406BF52EA033591EA030F41F4002130BD00BF90F0000F04BF0021704730B54FF4806404F1320492
:401480004FF000054FF0000150E700BF90F0000F04BF0021704730B54FF4806404F1320410F0004548BF40424FF000013EE700BF42004FEAE2014FEA31014FEA02701FBF0D
:4014C00012F07F4393F07F4F81F06051704792F0000F14BF93F07F4F704730B54FF4607401F0004521F0004120E700BF50EA010208BF704730B54FF000050AE050EA01023D
:4015000008BF704730B511F0004502D5404261EB41014FF4806404F132045FEA915C3FF4DCAE4FF003025FEADC0C18BF03325FEADC0C18BF033202EBDC02C2F1200300FA7D
:4015400003FC20FA02F001FA03FE40EA0E0021FA02F11444C1E600BF70B54FF0FF0C4CF4E06C1CEA11541DBF1CEA135594EA0C0F95EA0C0F00F0DEF82C4481EA030621EAC8
:401580004C5123EA4C5350EA013518BF52EA033541F4801143F4801338D0A0FB02CE4FF00005E1FB02E506F00042E0FB03E54FF00006E1FB03569CF0000F18BF4EF0010EE9
:4015C000A4F1FF04B6F5007F64F5407404D25FEA4E0E6D4146EB060642EAC62141EA55514FEAC52040EA5E504FEACE2EB4F1FD0C88BFBCF5E06F1ED8BEF1004F08BF5FEAAE
:40160000500E50F1000041EB045170BD06F0004646EA010140EA020081EA0301B4EB5C04C2BFD4EB0C0541EA045170BD41F480114FF0000E013C00F3AB8014F1360FDEBF02
:40164000002001F0004170BDC4F10004203C35DA0C341BDC04F11404C4F1200500FA05F320FA04F001FA05F240EA020001F0004221F0004110EBD37021FA04F642EB06017F
:401680005EEA430E08BF20EAD37070BDC4F10C04C4F1200500FA04F320FA05F001FA04F240EA020001F0004110EBD37041F100015EEA430E08BF20EAD37070BDC4F120053D
:4016C00000FA05F24EEA020E20FA04F301FA05F243EA020321FA04F001F0004121FA04F220EA020000EBD3705EEA430E08BF20EAD37070BD94F0000F0FD101F0004640002C
:4017000041EB010111F4801F08BF013CF7D041EA060195F0000F18BF704703F00046520043EB030313F4801F08BF013DF7D043EA0603704794EA0C0F0CEA135518BF95EA4D
:401740000C0F0CD050EA410618BF52EA4306D1D181EA030101F000414FF0000070BD50EA410606BF1046194652EA430619D094EA0C0F02D150EA013613D195EA0C0F05D14C
:4017800052EA03361CBF104619460AD181EA030101F0004141F0FE4141F470014FF0000070BD41F0FE4141F4780170BD70B54FF0FF0C4CF4E06C1CEA11541DBF1CEA13552B
:4017C00094EA0C0F95EA0C0F00F0A7F8A4EB050481EA030E52EA03354FEA013100F088804FEA03334FF0805545EA131343EA12634FEA022245EA111545EA10654FEA00260D
:401800000EF000419D4208BF964244F1FD0404F5407402D25B084FEA3202B61A65EB03055B084FEA32024FF480104FF4002CB6EB020E75EB030E22BFB61A754640EA0C0066
:401840005B084FEA3202B6EB020E75EB030E22BFB61A754640EA5C005B084FEA3202B6EB020E75EB030E22BFB61A754640EA9C005B084FEA3202B6EB020E75EB030E22BF8D
:40188000B61A754640EADC0055EA060E18D04FEA051545EA16754FEA06164FEAC30343EA52734FEAC2025FEA1C1CC0D111F4801F0BD141EA00014FF000004FF0004CB6E7E7
:4018C00011F4801F04BF01430020B4F1FD0C88BFBCF5E06F3FF6AFAEB5EB030C04BFB6EB020C5FEA500C50F1000041EB045170BD0EF0004E4EEA113114EB5C04C2BFD4EB7C
:401900000C0541EA045170BD41F480114FF0000E013C90E645EA060E8DE60CEA135594EA0C0F08BF95EA0C0F3FF43BAF94EA0C0F0AD150EA01347FF434AF95EA0C0F7FF4B2
:4019400025AF104619462CE795EA0C0F06D152EA03353FF4FDAE1046194622E750EA410618BF52EA43067FF4C5AE50EA41047FF40DAF52EA43057FF4EBAE12E74FEA4102D4
:40198000B2F1E04324BFB3F5001CDCF1FE5C0DD901F0004C4FEAC0024CEA5070B2F1004F40EB830008BF20F00100704711F0804F21D113F13872BCBF01F00040704741F448
:4019C00080114FEA5252C2F11802C2F1200C10FA0CF320FA02F018BF40F001004FEAC1234FEAD32303FA0CFC40EA0C0023FA02F34FEA4303CCE77FEA625307D150EA013381
:401A00001EBF4FF0FE4040F44000704701F0004040F0FE4040F40000704700BF80F0004002E000BF81F0004142001FBF5FEA410392EA030F7FEA226C7FEA236C6AD04FEA38
:401A40001262D2EB1363C1BFD218414048404140B8BF5B42192B88BF704710F0004F40F4000020F07F4018BF404211F0004F41F4000121F07F4118BF494292EA030F3FD074
:401A8000A2F1010241FA03FC10EB0C00C3F1200301FA03F100F0004302D5494260EB4000B0F5000F13D3B0F1807F06D340084FEA310102F10102FE2A51D2B1F1004F40EB46
:401AC000C25008BF20F0010040EA03007047490040EB000010F4000FA2F10102EDD1B0FA80FCACF1080CB2EB0C0200FA0CF0AABF00EBC25052421843BCBFD04018437047D3
:401B000092F0000F81F4000106BF80F400000132013BB5E74FEA41037FEA226C18BF7FEA236C21D092EA030F04D092F0000F08BF0846704790EA010F1CBF0020704712F029
:401B40007F4F04D1400028BF40F00040704712F100723CBF00F50000704700F0004343F0FE4040F4000070477FEA226216BF08467FEA23630146420206BF5FEA412390EA53
:401B8000010F40F4800070474FF0000304E000BF10F0004348BF40425FEA000C08BF704743F0964301464FF000001CE050EA010208BF70474FF000030AE000BF50EA0102B5
:401BC00008BF704711F0004302D5404261EB41015FEA010C02BF84460146002043F0B64308BFA3F18053A3F50003BCFA8CF2083AA3EBC25310DB01FA02FC634400FA02FC63
:401C0000C2F12002BCF1004F20FA02F243EB020008BF20F00100704702F1200201FA02FCC2F1200250EA4C0021FA02F243EB020008BF20EADC7070474FF0FF0C1CEAD05218
:401C40001EBF1CEAD15392EA0C0F93EA0C0F6FD01A4480EA010C400218BF5FEA41211ED04FF0006343EA501043EA5111A0FB01310CF00040B1F5000F3EBF490041EAD37137
:401C80005B0040EA010062F17F02FD2A1DD8B3F1004F40EBC25008BF20F00100704790F0000F0CF0004C08BF49024CEA502040EA51207F3AC2BFD2F1FF0340EAC2507047D3
:401CC00040F400004FF00003013A5DDC12F1190FDCBF00F000407047C2F10002410021FA02F1C2F1200200FA02FC5FEA310040F1000053EA4C0308BF20EADC70704792F0EF
:401D0000000F00F0004C02BF400010F4000F013AF9D040EA0C0093F0000F01F0004C02BF490011F4000F013BF9D041EA0C018FE70CEAD15392EA0C0F18BF93EA0C0F0AD070
:401D400030F0004C18BF31F0004CD8D180EA010000F00040704790F0000F17BF90F0004F084691F0000F91F0004F14D092EA0C0F01D142020FD193EA0C0F03D14B0218BFD5
:401D8000084608D180EA010000F0004040F0FE4040F40000704740F0FE4040F4400070474FF0FF0C1CEAD0521EBF1CEAD15392EA0C0F93EA0C0F69D0A2EB030280EA010C85
:401DC00049024FEA402037D04FF0805343EA111143EA10130CF000408B4238BF5B0042F17D024FF4000C8B4224BF5B1A40EA0C00B3EB510F24BFA3EB510340EA5C00B3EBA9
:401E0000910F24BFA3EB910340EA9C00B3EBD10F24BFA3EBD10340EADC001B0118BF5FEA1C1CE0D1FD2A3FF650AF8B4240EBC25008BF20F0010070470CF0004C4CEA502067
:401E40007F32C2BFD2F1FF0340EAC250704740F400004FF00003013A37E792F0000F00F0004C02BF400010F4000F013AF9D040EA0C0093F0000F01F0004C02BF490011F4B0
:401E8000000F013BF9D041EA0C0195E70CEAD15392EA0C0F08D142027FF47DAF93EA0C0F7FF470AF084676E793EA0C0F04D14B023FF44CAF08466EE730F0004C18BF31F029
:401EC000004CCAD130F000427FF45CAF31F000437FF43CAF5FE700BF014B1868704700BF4881FF1F0E4B70B51E460E4C0025E41AA410A54204D056F8253098470135F8E7C6
:401F000002F06CFA084B094C1E46E41AA4100025A54204D056F8253098470135F8E770BDE8430000E8430000E8430000F0430000931E222B10B50C4602D90020087010BDDE
:401F40000A2A06D1002804DA2D230B704042012100E00021214400F0B5FC204610BDFFF7E7BF10B5431E0A44914204D011F8014B03F8014FF8E710BD03460244934202D06E
:401F800003F8011BFAE770472DE9F04788B0149F002B1E461299B8BF03F1004327F02007B6BF1E4600232D23462F1446109DDDF84CA00B7003D0452F03D1013501E00323B8
:401FC00000E0022307AA049206AA03928DE828042246334600F040FD472F804602D1119BDB0728D5462F08EB050911D198F80030302B0AD1002200232046314602F06EF83F
:4020000018B9C5F10105CAF80050DAF800309944002200232046314602F060F808B9302202E0CDF81C9006E0079B994503D9591C07911A70F8E74046079B159AC8EB030308
:40204000136008B0BDE8F087034673B50029B8BF494203F8022BB4BF2D222B22092942701ADD0DF1070216460A2591FBF5F405FB1411092C01F1300102F8011D2146F4DC98
:402080003031541E02F8011CB4421A460AD214F8012B03F8012BF7E71A463024214402F8024B5970101A02B070BD00002DE9F04F91B00C46DDF8688016461F46054601F0F3
:4020C00063FA03681846099300F0F4FB00230E93D8F800300A90073323F0070303F1080294F81890D4F800B0C8F80020D3E90023C4E91223D4F84CA0D4F848802AF0004392
:402100000B934FF0FF32A74B40460B9902F018F8A0B94FF0FF32A34B40460B9901F0F2FF60B9002200234046514601F0E1FF10B12D2384F843309C4B9C4A0AE0424653468C
:402140004046514601F0FCFF002800F09281984B984AB9F1470F8CBF90469846032323612BF0040323604FF0000A3DE0B9F1670F00F08A81B9F1470F00F086812360019389
:40218000636800210DF13302059002920093424653460691CDF81090CDF80CE02846FFF7F3FE09F0DF03472B804600F08481B9F1650F0D9900F28D8101394A4604F1500046
:4021C0000D91FFF741FF0E9A82468318012A236100F37C812268D10700F178819DF8333013B12D2384F84330009733460FAA2146284600F09FF9013002D14FF0FF3096E10B
:4022000023685A0501D4236965E0B9F1650F40F2D580D4E912010022002301F05FFF78B30123654A31462846B8470130E5D00E9B0D9A9A420BDB2368D80708D423689B07B8
:4022400040F111814FF0000804F1190906E10A9B099A31462846B8470130CED04FF0000804F11A090E9B013B9845E7DA01234A4631462846B8470130BFD008F10108F1E747
:402280000D9B002B29DC01234B4A31462846B8470130B2D00D9B23B90E9B13B92368D907CCD50A9B099A31462846B8470130A4D04FF0000904F11A0A0D9B5B42994509DAB9
:4022C0000123524631462846B847013095D009F10109F1E70E9B4246A7E00E9AA36D9A42A8BF1A46002A914606DC4FF0000A29EAE97904F11A0B11E0134631464246284647
:40230000B8470130F1D178E701235A4631462846B84701303FF471AF0AF1010AA36DC9EB03029245F0DB08EB03090D9A0E9B9A420FDB2368DA070CD40E9B0D9A9844C9EB6E
:4023400008089B1A9845A8BF9846B8F1000F08DC0FE00A9B099A31462846B8470130EBD14BE743464A4631462846B84701303FF444AF4FF0000928EAE87804F11A0A09E090
:402380000123524631462846B84701303FF435AF09F101090D9A0E9B9B1AC8EB03039945EEDB4BE7FFFFEF7F564200005A4200005E42000062420000664200000E9A012A3B
:4023C00001DCDB0738D50123424631462846B84701303FF412AF0A9B099A31462846B84701303FF40AAFD4E912010022002301F075FE20B14FF0000804F11A090EE00E9BD3
:4024000008F10102013B19E001234A4631462846B84701303FF4F1AE08F101080E9B013B9845F1DB534604F1500231462846B84701307FF403AFE0E64246012331462846CF
:40244000B8470130EED1D8E601234A4631462846B84701303FF4D1AE08F10108E3680F9A9B1A9845F0DBE0680F9B9842B8BF18465DE062680EA8531C0DF1340E4BF48063B2
:402480007FF474AE062201E012B90122626075E6002106910DF133018DE80C00236005904246CDF81090CDF80CE0029153462846FFF76AFD80460D9BD81C02DB626893427D
:4024C0001DDDA9F102095FFA89F970E60133236184E6B9F1660F14D10029636807DD216113B92268D2071DD501330B4419E013B92268D00701D5023313E0012311E04FF070
:4025000067090D9B0E9A934205DB22682361D10708D5013305E0002BD4BFC3F102030123134423610D9B4FF0000AA36556E611B0BDE8F08F2DE9F04791461F460A698B68CB
:4025400006469342B8BF1346C9F8003091F843200C46DDF8208012B10133C9F800302368990642BFD9F800300233C9F80030256815F0060510D104F1190A07E00123524653
:4025800039463046C04701301AD00135E368D9F800209B1A9D42F1DB94F843302268003318BF012392060FD5E118302081F843005A1C94F845102244023382F8431003E058
:4025C0004FF0FF30BDE8F08704F1430239463046C0470130F4D02268D9F80050E36802F00602042A08BF5D1B2269A3680CBF25EAE57500259342C4BF9B1AED184FF0000980
:402600001A344D4509D00123224639463046C0470130D5D009F10109F3E70020BDE8F0872DE9F04317460A7E85B06E2A984606460C460C9B01F1430E00F0AE8011D8632A74
:4026400022D009D8002A00F0BB80582A40F0CA8081F84520834955E0642A1ED0692A1CD0C0E0732A00F0B08009D86F2A2ED0702A40F0B8800A6842F020020A603EE0752A98
:4026800024D0782A3AD0ADE01A6801F14205111D1960136884F84230A8E021681A6811F0800F02D0111D196008E011F0400F02F10401196002D0B2F9003000E01368002BAA
:4026C0003CDA2D225B4284F8432037E021681A6811F0800F02D0111D196007E011F0400F02F10401196001D0138800E01368227E5C496F2A14BF0A2208221BE078225A4920
:4027000084F845202268186812F0800F00F104051D6003D1550601D5038800E00368D00744BF42F0200222601BB9226822F0200222601022002084F8430001E049490A2257
:402740006568002DA56008DB206820F0040020602BB9002D7DD175460CE0002B79D07546B3FBF2F002FB1033CB5C05F8013D03460028F5D1082A0BD12368DA0708D52369DA
:4027800062689A42DEBF302305F8013C05F1FF35C5EB0E0323612EE008681A6810F0800F496903D0101D1860136808E010F0400F02F104001860136801D0198000E01960C2
:4027C00000232361754616E01A68111D1960156800216268284600F0E3FE08B1401B6060636804E004F1420584F8422001232361002384F84330CDF800803B4603AA214680
:402800003046FFF797FE013002D14FF0FF3026E023692A4639463046C0470130F5D023689B0710D5002504F1190907E001234A4639463046C0470130E7D00135E368039A46
:402840009B1A9D42F2DBE068039B9842B8BF184605E00B7804F1420584F842308AE705B0BDE8F08368420000794200000EB400B54FF402719CB0ADF814106FF000410491B6
:4028800007914FF6FF711DAB02900690084853F8042BADF81610006802A9019301F076FA029B00221A701CB05DF804EB03B070474881FF1F034613F8012B002AFBD1181AEC
:4028C00001387047F0B58BB003460F466D461A4C04F1200E2E4620686168083403C674453546F7D1217920683171911E222930604FF0000001D938701CE07D1EB3FBF2F42E
:4029000002FB14330AAE334413F8283C411C05F8013F23460CB10846F0E77C543A18C11A8B4206DAF95C1478FC5402F801190133F5E738460BB0F0BD8A4200002DE9F74FC3
:4029400003690C6980469C427FDC013C01F114074FEA840E00F1140606EB0E0357F82450019356F824300135B3FBF5F507EB0E09C5B34FF0000A3846B446D34650F8043BAC
:402980009AB205FB02A21B0C4FEA124A05FB03A392B2C2EB0B0BBCF800204FEA134A5A441FFA83FBDCF800308145CBEB134303EB224392B242EA03424FEA234B4CF8042B27
:4029C000DCD256F80E306BB9019B043B9E421A4602D3C8F8104005E01268043B002AF8D1013CF3E7404600F0F6FF00282BDB304601354FF0000E57F8042B036891B2C1EB67
:402A00000E0E120C99B27144C2EB134303EB214389B24FEA234EB94541EA034340F8043BE9D256F8242006EB840362B9043B9E421A4602D3C8F8104005E01268043B002A30
:402A4000F8D1013CF3E7284600E0002003B0BDE8F08F0000000000002DE9F04F456A95B08246219CCDE9022345B9102000F090FDCAF82400456085600560C560DAF82430BD
:402A8000196859B15A68012393404A608B60504600F0C9FDDAF8243000221A60039BA04A002BBDBF01232360039B0023BCBF23F000430393DDF80C80A8BF236028F000438B
:402AC0001B0D1B0593421DD142F20F73209A1360029B43B9934A944BC8F31300002814BF1846104600E09048229B002B00F04685C37813B100F1080300E0C31C229A1360D2
:402B000000F03CBDDDE90245002200232046294601F0E4FA074658B1209A01231360229B002B00F01E8581481860013800F026BD12AB019313AB009322462B46504600F046
:402B4000C5FFC8F30A56049056B1C5F3130343F07F51204641F44011A6F2FF3611971DE0139B129E1E4406F23243202B0ADD029A06F21240C3F1400322FA00F008FA03F36C
:402B8000184304E0C3F12000029B03FA00F0FEF76DFC0123A1F1F871013E11930022644BFEF726FB58A3D3E90023FEF7D5FC58A3D3E90023FEF71EFB044630460D46FEF7A1
:402BC00065FC55A3D3E90023FEF7C6FC02460B4620462946FEF70EFB04460D4601F0C6FA0022834600232046294601F081FA58B15846FEF74BFC02460B462046294601F09B
:402C00006DFA08B90BF1FF3BBBF1160F0DD8DDE90223484901EBCB01D1E9000101F086FA30B10BF1FF3B002300E00123109300E01090129B9E1B731E079343BFC3F1000870
:402C4000002307934FF00008BBF1000F06DB079BCDF82CB05B440793002705E00023CBEB0808CBF100070B931E9B092B28D8052BC4BF043B1E931E9BC8BF0025A3F1020354
:402C8000D8BF0125032B20D8DFE803F0060E0204012302E0012308E000230A931F9B002B1DDD9946059321E000230A931F9B0BEB030909F10103012B0593B8BF012315E066
:402CC000012500231E930A9501E001230A934FF0FF390022CDF8149012231F9206E04FF001094B46CDF81490CDF87C90DAF8244000226260042101F114029A421CD86268D6
:402D0000490001326260F6E761436F63A787D23FB3C8608B288AC63FFB799F501344D33F0000F07FAF420000B8420000674200000000F83FC84200006168504600F03EFC0D
:402D4000DAF8243020601B680693059B0E2B00F25B81002D00F05881DDE90234BBF1000FCDE90E3430DD9F4A0BF00F034FEA2B1502EBC303E80618CBCDE908340CD5DDE9AC
:402D80000E01994B05F00F05D3E90823FEF70EFD0324CDE9020100E00224934E6DB1E90708D5DDE90801D6E90023FEF7D5FBCDE9080101346D100836F0E7DDE90823DDE9CB
:402DC0000201FEF7F3FC20E0CBF1000505B3DDE90E01844B05F00F0203EBC203D3E90023FEF7BAFBCDE902017F4E2D110023022455B1EA0705D5D6E90023FEF7ADFB0134FB
:402E000001236D100836F3E71BB1CDE9020100E00224109BE3B1DDE902560022734B2846314601F065F998B1059B8BB1B9F1000F40F3E6800BF1FF330893314600226C4B4D
:402E40002846FEF789FB0134CDE902014E4602E0059ECDF820B02046FEF718FBDDE90223FEF77AFB634B0022FEF7C4F9A1F1507304460C931D46D6B9DDE9020100225E4BC6
:402E8000FEF7B6F922460C9BCDE9020101F04EF9002840F03F820C99224601F10043DDE9020101F025F9002840F02B82A8E00A9A4C4B711E002A49D003EBC103D3E9002310
:402EC00000204E49FEF772FC22462B46FEF790F9CDE90C01069CDDE9020101F047F90546FEF7D4FA02460B46DDE90201FEF780F9DDE90C23303504F8015BCDE9020101F0C8
:402F0000F7F8002840F01D83DDE9022300203749FEF76EF9DDE90C2301F0EAF8002840F0D180069BE31AB3426ADADDE90C0100222F4BFEF711FB0022CDE90C01DDE902015D
:402F40002B4BFEF709FBCDE90201C4E703EBC1012246D1E900012B46FEF7FEFA069BCDE90C011D469C19DDE9020101F0FFF80646FEF78CFA02460B46DDE90201FEF738F9D1
:402F8000303605F8016BAC42CDE902014FF0000222D11A4BDDE90C01FEF72CF902460B46DDE9020101F0C2F8002840F08B80DDE90C2300201149FEF71BF902460B46DDE9CE
:402FC000020101F095F8D8B114F8013C621E302B40F0B7821446F7E7054BFEF7BDFACDE90201C0E7C8420000A04300000000F03F0000244000001C40000014400000E03F57
:40300000DDE90E34CDE90234139B002B7CDBBBF10E0F79DCAB4B03EBCB03D3E900671F9B002B14DA059B002B11DC40F06C810022A54B30463946FEF78FFADDE9022301F070
:403040006BF8059D2E46002840F05F8165E1069CDDE9028932463B4640464946FEF7A6FB01F084F80546FEF711FA32463B46FEF773FA0B46024649464046FEF7B9F805F165
:40308000300E069B04F801EBC3EB040E059B73452DD102460B46FEF7ADF88046894602460B463046394601F023F878B942464B463046394601F012F8002800F04482EB07C7
:4030C00004D440E2DDF820B000E01C4614F8012C631E392A07D1069A9A42F6D1069930220BF1010B0A701A7801321A702BE20022764BFEF731FA002200238046894600F01B
:40310000EDFF0028A6D01EE20A9A002A2BD01E9A012A0ADC119A12B103F2334302E0129BC3F136033D46444613E0059B5D1EAF42BFBF0B9BEA1B9B180B93059BB6BF2F460E
:403140007D1B0025002BA7BF4446059BC3EB08040023079A01211A4450469844079200F001FB064602E03D4644460A9E5CB1079B002B08DDA342A8BF2346079AC3EB08082C
:40318000E41AD31A0793002F1DDD0A9BABB18DB131462A46504600F07FFB049A01460646504600F0E8FA04990890504600F03BFA089B04937A1B06D000E03A46049950467A
:4031C00000F06AFB04900121504600F0CBFA0B9B05465BB31A460146504600F05DFB1E9B0546012B18DC029B83B9039BC3F3130373B9039B23F000473F0D3F054FB1079B38
:4032000008F1010801330793012702E0002700E0029F0B9B73B100E000272B6905EB8303186900F052FAC0F1200004E01E9B012BD9DD0B9F0120079B184410F01F0008D064
:40324000C0F12003042B02DDC0F11C0002E006D018461C30079B8044034404440793B8F1000F05DD42460499504600F063FB0490079B002B05DD29461A46504600F05AFB1E
:403280000546109B23B32946049800F0A4FB00281EDA00230A220499504600F0DBF90A9B0BF1FF3B0490002B00F05F81314600230A22504600F0CEF9B9F1000F06463FDCA5
:4032C0003BE000BFC84200000000144000002440059B002B2BDC1E9B022B28DDDDF81490B9F1000F11D129464B460522504600F0B1F901460546049800F06DFB00280CDC74
:4033000003E0354600E000252E461F9B069C6FEA030B09E03546DDF820B0069B069A5C1C312313700BF1010B05960026F7E00A9BDDF8149023B9069CB2E01E9B022BCFDCFB
:40334000002C05DD31462246504600F0F3FA06469FB17168504600F031F90446326906F10C01023292000C30FEF7FBFD01222146504600F0DFFA059000E00596029B069FB5
:4033800003F00103079329460498FFF7D7FA3146044600F13008049800F01DFB059A02902946504600F033FBC36802463BB901460A90049800F00FFB0A9A034600E00123F9
:4033C000114650460A9300F02EF90A9B53B91E9A42B9079A32B9B8F1390F2AD0029B002B1CDC1DE0029A002A04DB1BD11E9ACAB9079ABAB9002B13DD01220499504600F053
:4034000099FA2946049000F0E6FA002803DC07D118F0010F04D0B8F1390F0AD004F131087C1C0CE0002B07F101040BDDB8F1390F03D139233B70013756E008F1010887F813
:4034400000806CE0069B2746E31A4B4504F8018C3BD000230A220499504600F0FBF8059B04909E424FF00A024FF000033146504604D100F0EFF80646059084E700F0EAF874
:40348000002306460A220599504600F0E3F8059079E700230A220499504600F0DBF8049029460498FFF74AFA069B00F1300804F8018BE31A4B45ECDB069B0596B9F1010FC3
:4034C000ACBF4B4401331F46002601220499504600F030FA2946049000F07DFA002803DC15D118F0010F12D03C4614F8013C621E392B09D1069B934204D10BF1010B312322
:40350000069A02E01446F0E70133137007E03C4614F8013C621E302B01D11446F8E72946504600F080F8059B6BB12EB19E4203D03146504600F077F80599504600F073F8D3
:4035400001E0DDF820B00499504600F06CF80023209A23700BF101031360229B1BB11C6001E008480AE0069808E0B9F1000F3FF7E2AE1E9B022B7FF7DEAEB1E615B0BDE84D
:40358000F08F00BF66420000004870474C81FF1F024B0146186800F041BB00BF4881FF1F10B5C9B202449042034605D01C7801308C42F8D1184610BD002010BD70B5456AD7
:4035C00004460E463DB91020FFF7E2FF6062456085600560C560656AEB6843B1636ADB6853F8260078B1026843F8262017E021220421204600F0B8FA636AE860DB68002BC5
:40360000ECD1002070BD012101FA06F56A1D9200204600F0A9FA0028F3D04660856000230361C36070BD70B5446A06460D463CB91020FFF7ADFF7062446084600460C460EE
:403640003DB1736A6A68DB6853F82210296043F8225070BD2DE9F04106460C460D691F4601F1140E0023DEF80000013381B202FB0171000C0F0C02FB007089B201EB0041EB
:403680009D424FEA10474EF8041BECDCD7B1A3689D4212DB616830460131FFF78FFF8046226904F10C01023292000C30FEF759FC21463046FFF7B7FF444604EB85030135BB
:4036C0005F6125612046BDE8F081030C1B0413B90004102300E0002310F07F4F04BF0002083310F0704F04BF0001043310F0404F04BF80000233002803DB420003D5581CB1
:4037000070471846704720207047036813F007020BD0D90722D49A074BBF5B089B08036003604CBF01200220704799B209B91B0C102213F0FF0F04BF1B0A0832190704BFA6
:403740001B090432990704BF9B080232D90702D45B0805D00132036010467047002070472020704710B50C460121FFF727FF01224461026110BD2DE9F74F14460A69236954
:4037800088469A42BEBF0B46A0461C46D8F81070D4F81090D8F80830D8F8041007EB09069E42C8BF0131FFF709FF00F114052B4605EB860C0022634502D243F8042BFAE723
:4037C00004F1140208F1140102EB890301EB87070093009B0192934257D9B2F800B0BBF1000F23D08946AE464FF0000859F8044BBEF800A0A3B20BFB03A34FEA144ADEF881
:40380000004043444FEA14480BFB0A84F24604EB13449BB243EA04434F454FEA14484AF8043B01D9D646E1E7CEF80480019B0432B3F802A0BAF1000F21D02C4689462B6809
:403840004FF00008B9F800E0B4F802B09BB20AFB0EBEA346F04443EA08434BF8043B59F8043BB4F804E01B0C0AFB03E34F4503EB18434FEA134801D95C46E3E763600435F8
:40388000A7E75CF8043D13B9013E002EF9DC066103B0BDE8F08F00002DE9F843154612F0030206460F4607D0214C013A002354F82220FFF7CFFE0746AD1036D0746A3CB96F
:4038C0001020FFF765FE7062446084600460C460D6F82480D8F808404CB940F271213046FFF740FF04460023C8F8080003604FF00008EB070AD5394622463046FFF73BFF22
:40390000814639463046FFF78EFE4F466D100CD0206808B10446ECE7224621463046FFF72AFF2060C0F80080F4E73846BDE8F883904300002DE9F0470C4607469146266943
:403940004FEA621A56444968A368751CAB4202DA01315B00FAE73846FFF730FE002380461A4600F11401534503DA41F823200133F9E72AEAEA73206901EB830319F01F09E1
:4039800004F1140101EB800E14D0C9F1200C002208689A4600FA09F0024343F8042B51F8042B8E4522FA0CF2F2D8CAF8042042B1B51C06E0043B51F8042B8E4543F8042FEE
:4039C000F9D8013D3846C8F810502146FFF72BFE4046BDE8F08703690A6910B59B1A11D192001430143183180A4453F8044D52F8041D8C4202D007D3012010BD9842F4D3A3
:403A0000002010BD184610BD4FF0FF3010BD2DE9F8430C460746114620461546FFF7DBFF061E08D131463846FFF7C8FD012303614661BDE8F883BCBF23462C4638466168C2
:403A4000BABF1D4601260026FFF7B8FD2B69C660266905F1140904F1140101EB860709EB830800F114054FF0000C51F8042B59F8044B93B29C44A3B2240CC3EB0C03C4EB91
:403A8000124202EB23429BB24FEA224CC84543EA02428E4645F8042BE7D8BE450ED25EF8041B8AB26244131403EB114392B242EA03424FEA234C45F8042BEEE755F8043D20
:403AC0000BB9013EFAE70661BDE8F8832DE9F3411C4601219046089E099DFFF76FFDC4F31302C4F30A5407460CB142F480120192B8F1000F19D002A840F8088DFFF705FEB2
:403B0000009B48B1019AC0F1200102FA01F10B43C2407B61019200E07B61019B002B14BF02210121BB61396107E001A8FFF7EDFD019B01217B613961203034B1A4F23344A0
:403B400004443460C0F1350009E0A0F2324007EB810330601869FFF7B8FDC0EB41102860384602B0BDE8F08138B502FB01F4214600F054F8054618B122460021FEF7FCF991
:403B8000284638BD38B50546002944D051F8043C0C1F002BB8BFE41800F017FA1E4A1368114613B96360146030E0A3420DD92268A018834201BF18685B6812182260636049
:403BC0000C6023E0A24203D813465A68002AF9D118681918A1420BD12168014458188242196013D110685268014419605A600DE002D90C232B6009E021686018824201BF1F
:403C0000106852680918216062605C602846BDE8384000F0DBB938BDB081FF1F70B5CD1C25F0030508350C2D38BF0C25002D064601DBA94202D90C23336046E000F0C5F965
:403C4000234B1C681A462146A1B10B685B1B0ED40B2B03D90B60CC18CD501EE08C420BBF63684B681360636018BF0C4615E00C464968E9E7174C23681BB9304600F07AF91A
:403C800020602946304600F075F9431C18D0C41C24F00304A0420DD12560304600F096F904F10B00231D20F00700C31A0ED05A42E25070BD211A304600F05CF90130EBD1D5
:403CC0000C233360304600F081F9002070BD00BFB081FF1FAC81FF1F2DE9F0478E6882469E420C46914698463ED88A8912F4906F3AD02568096902236F1A656905EB45059D
:403D000095FBF3F57B1C43449D4238BF1D4653050FD52946FFF782FF064698B13A462169FEF71FF9A38923F4906343F08003A38113E02A4600F04BF9064670B921695046AA
:403D4000FFF720FF0C23CAF80030A3894FF0FF3043F04003A381BDE8F08726613E44266046466561ED1BA560464528BF464649463246206800F00EF9A36800209B1BA36067
:403D800023681E442660BDE8F08700002DE9F04F9DB003938B8980461C060D4616460DD50B695BB94021FFF739FF2860286118B90C23C8F80030CDE040236B6100230993FC
:403DC00020238DF82930DFF89CB130238DF82A3037463C4614F8013B1BB9B7EB060910D003E0252BF9D02746F3E74B46324629464046FFF771FF013000F0A780099B4B447E
:403E000009933B78002B00F0A08000234FF0FF3204930793059206938DF853301A930126052221784E48FFF7BBFB671C049B38B14B4A3C46801A06FA00F018430490EFE7B5
:403E4000D90644BF20228DF853201A0744BF2B228DF8532022782A2A03D0079A00210A200BE0039A111D12680391002A10DA524243F00200079204900BE027463B78013402
:403E8000303B092B03D800FB02320121F5E701B107923B782E2B1ED17B782A2B0AD1039B02371A1D1B680392002BB8BF4FF0FF33059310E0002319460593781C0A24074608
:403EC0003A780130303A092A03D804FB01210123F5E703B10591032239782248FFF760FB40B14023CBEB000003FA00F0049B013718430490397806221B487E1C8DF828101B
:403F0000FFF74EFB88B1194B33B9039B073323F007030833039314E003AB00932A46144B04A94046FEF7C2F807E003AB00932A460F4B04A94046FEF773FBB0F1FF3F8246DE
:403F400003D0099B5344099342E7AB895B0601D4099801E04FF0FF301DB0BDE8F08F00BFC8430000CE430000D2430000AD200000D93C000038B5064C0023054608462360D3
:403F8000FCF770FB431C02D1236803B12B6038BD0482FF1F884210B501EB020301D8421E0BE09842FBD28118D21AD34204D013F8014D01F8014DF8E710BD994204D011F851
:403FC000014B02F8014FF8E710BD70477047F8B5074615460E4621B91146BDE8F840FFF71DBE1AB9FFF7CEFD2846F8BD00F015F885420ED929463846FFF710FE044650B1EB
:4040000031462A46FDF7ADFF31463846FFF7BAFD01E03046F8BD2046F8BD51F8040C0028BEBF091851F8043CC0180438704700004FF0FF3C06E000BF4FF0010C02E000BFB1
:404040004FF0010C4DF804CD4FEA410C7FEA6C5C4FEA430C18BF7FEA6C5C1BD001B050EA410C0CBF52EA430C91EA030F02BF90EA020F0020704710F1000F91EA030F58BFBA
:40408000994208BF90422CBFD8176FEAE37040F0010070474FEA410C7FEA6C5C02D150EA013C07D14FEA430C7FEA6C5CD6D152EA033CD3D05DF8040B704700BF84461046CD
:4040C00062468C461946634600E000BF01B5FFF7B7FF002848BF10F1000F01BD4DF808EDFFF7F4FF0CBF012000205DF808FB00BF4DF808EDFFF7EAFF34BF012000205DF858
:4041000008FB00BF4DF808EDFFF7E0FF94BF012000205DF808FB00BF4DF808EDFFF7CEFF94BF012000205DF808FB00BF4DF808EDFFF7C4FF34BF012000205DF808FB00BF1D
:404140004FEA410C7FEA6C5C02D150EA013C0AD14FEA430C7FEA6C5C02D152EA033C02D14FF0000070474FF0010070474FEA410212F5001215D211D56FF47873B3EB62529A
:4041800012D94FEAC12343F0004343EA505311F0004F23FA02F018BF404270474FF00000704750EA013005D111F0004008BF6FF0004070474FF00000704700BF00000000F8
:4041C0004E2E413D00000000252E3166000000002569000054656D3D256920432048756D3D256900204320007C000000202548200000000020252000C84900401900004F1A
:4042000000400C00005100401000405100403000F05100401000000001400010001401408006001B0140000100400140000A004C01400002005001402000000060520040B9
:40424000EC0300480600801A0140F40300488000004014544300494E4600696E66004E414E006E616E00300030313233343536373839414243444546003031323334353611
:4042800037383961626364656600303132333435363738396162636465666768696A6B6C6D6E6F707172737475767778797A00496E66696E697479004E614E00504F534953
:4042C00058002E0000000000000000000000F03F000000000000244000000000000059400000000000408F40000000000088C34000000000006AF8400000000080842E415D
:4043000000000000D01263410000000084D797410000000065CDCD41000000205FA00242000000E876483742000000A2941A6D42000040E59C30A2420000901EC4BCD642E8
:4043400000003426F56B0C430080E03779C3414300A0D8855734764300C84E676DC1AB43003D9160E458E143408CB5781DAF154450EFE2D6E41A4B4492D54D06CFF0804496
:40438000F64AE1C7022DB544B49DD9794378EA4405000000190000007D000000000000000080E03779C34143176E05B5B5B89346F5F93FE9034F384D321D30F94877825AEA
:4043C0003CBF737FDD4F1575232D302B2000686C4C0065666745464700000000F8B500BFF8BC08BC9E4670474D000000E1060000F8B500BFF8BC08BC9E46704729000000D0
:4044000010440000C880FF1FC0000000800000000000000063000000630000000882FF1F0000E02EC05D00001800000000366E01000000000000000000000000000000002C
:4044400000000000000000000000000000000000544200000000000000000000000000000000000000000000000000000000000000000000000000000000000000000000A6
:4044800000000000000000000000000000000000E880FF1FC2420000CD430000CD430000CD430000CD430000CD430000CD430000CD430000CD430000CD430000FFFFFFFFE6
:4044C000FFFFFFFFFFFFFFFFFFFF000000000000000000000000000000000000000000000000000000000000000000000000000000000000000000000000000000000000C6
:40450000000000000000000000000000000000000000000000000000000000000000000000000000000000000000000000000000000000000000000000000000000000007B
:40454000000000000000000000000000000000000000000000000000000000000000000000000000000000000000000000000000000000000000000000000000000000003B
:4045800000000000000000000000000000000000000000000000000000000000000000000000000000000000000000000000000000000000000000000000000000000000FB
:4045C00000000000000000000000000000000000000000000000000000000000000000000000000000000000000000000000000000000000000000000000000000000000BB
:020000040003F7
:0200000480007A
:40000000014F00400152004001640040026500400103014001050140010701405308014038090140040B0140010D0140041501404D18014038190140081A0140521B01401C
:400040000240014003410140074201400443014004450140034601400148014012490140064C01400D4D014004500140025101400A4B1102890F88388B72E602EE01E280DF
:400080000010010302400410050406AC08090AD00B040E201102130114DC15041622180C1A711D011E031F022108250328143103330C34E0361F39083A20580459045C1152
:4000C0005F01821584138501860C870689018A088B0E8F039413950C9604970398209B0CA308A403A614A80AAA14B010B220B30FB40FBA20BB08BE05C021C106C5ECC6B0E9
:40010000C70EC81BC9FFCAFFCBFFCEF0CF44D00CD401D804D904DA04DB04DC11DD11DF01E6C0EA40EB0200140380049405020B280D080E09103012081520180419041A4085
:400140001E091F10210822082310241025022601271029022FA0310833103540360538843B203C043F1140044380482049014B2051105304581059055A4068018801974018
:40018000A401C0FEC2E6C446CAC1CCD6CEEED00CD204D60FE28084019740E408EE018740E008E401EA05EE020208030105060608070109010A300B060C310D040E061007A1
:4001C000110715061630170119061A301C0720242108220124302502283029082C122D082E413007320833083440350736303B203E0454185604580459045B045C115D1055
:400200005F01850689068F02910195049B01A501AB01B101B306B90ABB20BF04C003C540C9FFCA07CBFFCC40CD20CEF0CF05D008D904DA04DC10DD01DF01E040E1A8E24010
:40024000E3200440050807840F991480152016221C481E021F0421142380252026082704284029202B542C682E4031283301372538843B203C803D013E203F2840804106E1
:400280004902504053805E026401674889018A08900492019320948097419D42A10AA7A0C0F0C2F0C4F0CAF6CCE7CEFED002D680D8B0050109011501190133013F04590450
:4002C0005F010441068407200D120E010F101420160217161DB01E102010240A25482C202D5131103314354036083722380839303A103C093D803E2045A046104C014D098D
:400300004E084F105C10651066206C086E406F207460760477208210844185088720884089408A828C2C8D608F03904091209201964097119B049C419D689E229F20A00476
:40034000A102A208A468A720B110B301C0F0C2F0C4F0CAF0CCF6CEF6D070D230D620E009E401EA05EE023010CC1084109C10E6403E105B029B02AB02CE20D640EE80602044
:4003800088209610D84003405840C008D40184409C40AB409610122016407B027E01822086409202A302AA10AB02AE01C430DC80DE20E010E480EAA0EE40132814807B103F
:4003C0007F40C40EDE031040710281028310874088409780A710AB28AC80C408DC01E20100020C0210021C02000303C00280000043000000081000000C0000040427001894
:4004000003002040023C4002000003230F180000100400000C0003400F080000033F0C00011C4021000010400F1F603800002020000044042603050001CE000003FFFFFFAB
:4004400062A0F0410C0000000000021104040404111100010000000000004002001030100010101200000000000000000000000000000000830040808300830000000000EA
:40048000000B0B00000000000103020002000000800000901000000000000000000000000000000000000000000000000000000000000000000000000000000000000000FE
:4004C00000000000000000000000000000000000000000000000000000000000000000000000000000000000000000000000000000000000000000000000000000000000FC
:4005000000000000000000000000000000000000000000000000000000000000000000000000000000000000000000000000000000000000000000000000000000000000BB
:40054000000000000000000000000000000000000000000000000000000000000000000000000000000000000000000000000000000000000000000000000000000000007B
:40058000000000000000000000000000000000000000000000000000000000000000000000000000000000000000000000000000000000000000000000000000000000003B
:0200000490006A
:0400000000004005B7
:0200000490105A
:04000000BC90ACAF55
:0200000490303A
:02000000BF0738
:0200000490402A
:4000000000000000000000000000000000000000000000000000000000000000000000000000000000000000000000000000000000000000000000000000000000000000C0
:400040000000000000000000000000000000000000000000000000000000000000000000000000000000000000000000000000000000000000000000000000000000000080
:400080000000000000000000000000000000000000000000000000000000000000000000000000000000000000000000000000000000000000000000000000000000000040
:4000C0000000000000000000000000000000000000000000000000000000000000000000000000000000000000000000000000000000000000000000000000000000000000
:0200000490501A
:0C00000000012E16106900012E31CF7097
:00000001FF